:100000000C9462000C948A000C948A000C948A0070
:100010000C948A000C948A000C948A000C948A0038
:100020000C948A000C948A000C948A000C94FA03B5
:100030000C948A000C948A000C948A000C948A0018
:100040000C94B0030C948A000C948A000C948A00DF
:100050000C948A000C948A000C948A000C948A00F8
:100060000C948A000C948A000000000024002700F1
:100070002A0000000000250028002B0000000008D6
:10008000000201000003040700000000000000005F
:1000900000000000230026002900040404040404D6
:1000A0000404020202020202030303030303010227
:1000B00004081020408001020408102001020408F6
:1000C0001020CB0611241FBECFEFD8E0DEBFCDBF7E
:1000D00011E0A0E0B1E0E8ECF1E102C005900D9282
:1000E000AC33B107D9F721E0ACE3B1E001C01D9218
:1000F000AA38B207E1F710E0C2E6D0E004C02197C9
:10010000FE010E94DC08C136D107C9F70E94FB043A
:100110000C94E2080C940000CF92DF92EF92FF92D1
:10012000DC01A03282E0B807D4F5A53BB10514F09C
:10013000A4EBB0E04091700128E830E0241B3109C5
:1001400047FD3395220F331F220F331F6901330FF1
:10015000EE08FF084091710128E532E0241B3109C7
:1001600047FD3395220F331F220F331F032E000C40
:10017000440B550B2C193D094E095F09B7FF02C00E
:10018000B0E0A0E00E943D0724EB30E040E050E00A
:100190000E941307C20ED31EE41EF51ED601E09185
:1001A0006F01EC3080F52091700188E890E0821BAF
:1001B000910927FD9395880F991F880F991FA817FC
:1001C000B90784F02091710188E592E0821B9109C2
:1001D00027FD9395880F991F880F991FA817B907B6
:1001E0000CF4CD010297880F991F4FB7F8942E2F6A
:1001F00030E0F901EE0FFF1FE20FF31FE55BFE4F4A
:10020000928381834FBFFF90EF90DF90CF9008954E
:10021000AF92BF92CF92DF92EF92FF920F931F9314
:10022000CF93DF936C017B018B01040F151FEB0152
:100230005E01AE18BF08C017D10759F06991D60109
:10024000ED91FC910190F081E02DC6010995892B7B
:1002500079F7C501DF91CF911F910F91FF90EF903A
:10026000DF90CF90BF90AF90089590E0FC01E458EC
:10027000FF4F2491FC01E255FF4F3491FC01E656FB
:10028000FF4FE491EE23C9F0222339F0233001F12E
:10029000A8F4213019F1223029F1F0E0EE0FFF1F10
:1002A000EE58FF4FA591B4918FB7F894EC9161117E
:1002B00026C030953E233C938FBF08952730A9F088
:1002C0002830C9F0243049F7809180008F7D03C029
:1002D000809180008F7780938000DFCF84B58F7707
:1002E00084BDDBCF84B58F7DFBCF8091B0008F774D
:1002F0008093B000D2CF8091B0008F7DF9CF3E2B9C
:10030000DACFCF93DF9390E0FC01E255FF4F2491C9
:1003100086569F4FFC0184918823D1F090E0880F8E
:10032000991FFC01E859FF4FA591B491FC01EE58CB
:10033000FF4FC591D49161110EC09FB7F8948C9175
:10034000E22FE0958E238C932881E223E8839FBFE0
:10035000DF91CF9108958FB7F894EC91E22BEC9355
:100360008FBFF6CF3FB7F89480914301909144013D
:10037000A0914501B091460126B5A89B05C02F3F2D
:1003800019F00196A11DB11D3FBFBA2FA92F982FBB
:100390008827BC01CD01620F711D811D911D42E0B6
:1003A000660F771F881F991F4A95D1F708958F927E
:1003B0009F92AF92BF92CF92DF92EF92FF924B014A
:1003C0005C010E94B2016B017C010E94B2016C19B8
:1003D0007D098E099F09683E734081059105A8F348
:1003E00021E0821A9108A108B10888EEC80E83E0C6
:1003F000D81EE11CF11C81149104A104B10429F759
:10040000FF90EF90DF90CF90BF90AF909F908F9034
:100410000895089590E080E008958F929F92AF92A2
:10042000BF920F931F93CF93DF93CDB7DEB7A19702
:100430000FB6F894DEBF0FBECDBF19A2423008F44C
:100440004AE08E010F5D1F4F842E912CB12CA12C00
:10045000A50194010E944507E62FB901CA01EA30BF
:1004600044F5E05DD801EE938D01232B242B252B41
:1004700079F790E080E0109769F0FD01019000208D
:10048000E9F73197AF014A1B5B0BBD0182E791E0B1
:100490000E940801A1960FB6F894DEBF0FBECDBF33
:1004A000DF91CF911F910F91BF90AF909F908F9050
:1004B0000895E95CD7CFFC0101900020E9F731975E
:1004C000AF01481B590BBC0182E791E00C94080175
:1004D000CF93DF93EC0160E08E810E94350161E0F3
:1004E0008E810E94350160E08E810E9435018BE88B
:1004F00091E00197F1F7DF91CF910895CF92DF92CC
:10050000EF92FF920F931F93CF93DF936C017C01C7
:1005100087E0E80EF11CD0E0C0E0062F10E0B80143
:100520000C2E02C0759567950A94E2F76170F70189
:1005300081917F010E9435012196C430D10579F760
:10054000C601DF91CF911F910F91FF90EF90DF9047
:10055000CF900C946802CF92DF92EF92FF920F93AC
:100560001F93CF93DF93EC01F62E642F8C810E94B2
:1005700035018D818F3F19F060E00E9435010F2D0C
:1005800010E08F8584FF25C06E0187E0C80ED11C66
:10059000F12CE12CB8010E2C02C0759567950A94D8
:1005A000E2F76170F60181916F010E943501FFEF62
:1005B000EF1AFF0A88E0E816F10461F7CE01DF9137
:1005C000CF911F910F91FF90EF90DF90CF900C94FF
:1005D0006802B80184E0759567958A95E1F7CE01C8
:1005E0000E947E026F2DCE01DF91CF911F910F915E
:1005F000FF90EF90DF90CF900C947E0240E0682F48
:1006000082E791E00C94AB02CF93DF93823029F420
:10061000909181019860909381018093850110925F
:10062000860180E48093870180E18093880180E5E2
:100630008093890161E0809176010E94810180911F
:1006400077018F3F19F061E00E94810161E08091A4
:1006500078010E948101C2E7D1E09E01225731401A
:100660008091810184FD0BC084E090E021962817E1
:10067000390744F461E08E810E948101EECF88E069
:1006800090E0F4CF8BE39DE00197F1F760E080917B
:1006900076010E94350160E0809178010E94350169
:1006A000809177018F3F19F060E00E9435018091C1
:1006B000810184FD39C063E082E791E00E947E02FF
:1006C000CBE4D6E4CE010197F1F763E082E791E055
:1006D0000E947E022197F1F763E082E791E00E9499
:1006E0007E0283E592E00197F1F762E082E791E014
:1006F0000E947E028091810180620E94FE0284E05D
:10070000809382018CE00E94FE0281E00E94FE0242
:100710008BE39FE10197F1F782E08093830186E00C
:10072000DF91CF910C94FE0280620E94FE028BE466
:1007300096E40197F1F78091810180620E94FE02A8
:1007400083E592E00197F1F78091810180620E9438
:10075000FE02D0CF41E00E94AB0281E090E008951C
:100760001F920F920FB60F9211242F933F938F93E6
:100770009F93AF93BF9380913F0190914001A091CF
:100780004101B091420130913E0123E0230F2D370A
:1007900058F50196A11DB11D20933E0180933F01A4
:1007A00090934001A0934101B09342018091430195
:1007B00090914401A0914501B09146010196A11D7F
:1007C000B11D8093430190934401A0934501B093E0
:1007D0004601BF91AF919F918F913F912F910F90C3
:1007E0000FBE0F901F90189526E8230F0296A11DAB
:1007F000B11DD2CF1F920F920FB60F9211242F93DB
:100800003F934F935F936F937F938F939F93AF9398
:10081000BF93CF93DF93EF93FF9380913D01C091FE
:100820003C01D0E087FF24C0109285001092840024
:1008300080913D018F5F80933D0180913D01082EA5
:10084000000C990B8C179D0724F480913D018C308E
:10085000C4F18091840090918500049680349C4975
:1008600008F47AC08091840090918500049676C047
:1008700080913D01082E000C990B8C179D07C4F642
:10088000E0913D018E2FEE0F990BFC01EE0FFF1F43
:10089000E80FF91FE55BFE4F808186FFC9CFE0912D
:1008A0003D018E2FEE0F990BFC01EE0FFF1FE80F9D
:1008B000F91FE55BFE4F808160E08F730E94350178
:1008C000B7CF2091840030918500E0913D018E2FBB
:1008D000EE0F990BFC01EE0FFF1FE80FF91FE55B10
:1008E000FE4F81819281820F931F909389008093A4
:1008F0008800E0913D018E2FEE0F990BFC01EE0F69
:10090000FF1FE80FF91FE55BFE4F808186FF11C0D6
:10091000E0913D018E2FEE0F990BFC01EE0FFF1FB2
:10092000E80FF91FE55BFE4F808161E08F730E9445
:100930003501FF91EF91DF91CF91BF91AF919F91E1
:100940008F917F916F915F914F913F912F910F9078
:100950000FBE0F901F90189580E49CE9909389003A
:10096000809388008FEF80933D01E3CFCF92DF9299
:10097000EF92FF920F931F93E82FF92F05C00150BC
:1009800011092109310961F1908196239417B9F376
:1009900005C0015011092109310911F190819623F7
:1009A0009413F7CFC12CD12CE12CF12C0AC08FEF7E
:1009B000C81AD80AE80AF80A0C151D052E053F05C5
:1009C00079F080818623841791F36C2D7D2D8E2DF7
:1009D0009F2D1F910F91FF90EF90DF90CF90089582
:1009E00060E070E080E090E01F910F91FF90EF9049
:1009F000DF90CF900895789484B5826084BD84B5EB
:100A0000816084BD85B5826085BD85B5816085BD09
:100A100080916E00816080936E00109281008091C1
:100A20008100826080938100809181008160809349
:100A30008100809180008160809380008091B1006E
:100A400084608093B1008091B00081608093B00099
:100A500080917A00846080937A0080917A0082602D
:100A600080937A0080917A00816080937A008091EF
:100A70007A00806880937A001092C10082E00E9420
:100A8000040361E089E00E94810160E08AE00E9445
:100A9000810180916F018C3008F051C061E08DE0E0
:100AA0000E94810180916F01282F30E0F901EE0F43
:100AB000FF1FE20FF31FE55BFE4F9081907C9D606E
:100AC000908310927001109271012CE0622F0E94AD
:100AD000D008829FB001112430E020E0AB01420F2A
:100AE000531FFA01EE0FFF1FE40FF51FE55BFE4FEA
:100AF000908196FD16C02F5F3F4F2C30310571F766
:100B000081110FC01092800082E0809381001092CA
:100B1000850010928400B19A80916F00826080936A
:100B20006F00E0916F018E2F90E0FC01EE0FFF1F30
:100B3000E80FF91FE55BFE4F80818064808393E0BE
:100B4000E92EF12C23E2C22ED12C38EB232E30E0FB
:100B5000332E44EAA42E40E0B42E50E0852E50E01F
:100B6000952ECAE5D0E060E089E00E943501C7011A
:100B70000197F1F761E089E00E943501C601019714
:100B8000F1F760E089E00E943501F1016491F5011F
:100B90008491E82FF0E0EE0FFF1FE057FF4F8591A3
:100BA000949100E412E42FE030E0462F0E94B60456
:100BB000611571058105910529F06F5F7F4F8F4F9A
:100BC0009F4F9F700E94B30726E933E44BE05DE33B
:100BD0000E943B0820E030E040E05FE30E943B08D9
:100BE0000E947B0770934A0160934901E1E0809184
:100BF00085018111E0E0E195F0E0EE58FE4F848937
:100C000080680E94FE028CE091E00E945B024090AE
:100C1000490150904A01052C000C660877084AE00B
:100C2000C301B20177FE0EC041E06DE282E791E0C0
:100C30000E94AB0266277727CB01641975098609E4
:100C400097094AE00E940D0287E191E00E945B0251
:100C50006AE070E080E090E00E94D701E0918501B9
:100C6000E23008F054C0E150F0E0EE58FE4F8489C5
:100C700080680E94FE026AE070E080E090E00E94DE
:100C8000D70180914701909148010E948C006091AA
:100C9000490170914A01072E000C880B990B0E94A4
:100CA000B30720E030E040E850E40E94760787FF79
:100CB00041C08BE191E00E945B02809147019091DD
:100CC00048018A3591052CF56CED75E080E090E0E7
:100CD0000E94D7011092480110924701609047018D
:100CE00070904801FBE56F167104ECF4C3010E949B
:100CF0008C006AE070E080E090E00E94D7018FEF06
:100D0000681A780A7092480160924701E7CFE1E0E3
:100D1000ABCFD0934801C09347016AE070E080E018
:100D200090E00E94D7018114910409F41CCF0E9425
:100D3000000019CF8CE291E00E945B028091470194
:100D400090914801181619060CF56CED75E080E0DD
:100D500090E00E94D701D0934801C0934701609072
:100D600047017090480177FCDECFC3010E948C00E0
:100D70006AE070E080E090E00E94D701E1E06E1A46
:100D800071087092480160924701E9CF10924801C2
:100D900010924701C2CFCF93109275011092740147
:100DA00084E091E0909373018093720181E08093DD
:100DB0007601CFEFC093770182E08093780184E0E1
:100DC0008093790185E080937A0186E080937B01AE
:100DD00087E080937C0110927D0110927E01109239
:100DE0007F01109280011092810181E00E94040332
:100DF00080913C018C30A0F491E0980F90933C01DD
:100E000080936F0190E0FC01EE0FFF1FE80FF91FC8
:100E1000E55BFE4F88EB9BE092838183CF91089541
:100E2000C0936F01FBCF052E97FB1EF400940E9428
:100E30002A0757FD07D00E94450707FC03D04EF450
:100E40000C942A0750954095309521953F4F4F4F70
:100E50005F4F089590958095709561957F4F8F4F66
:100E60009F4F08950E946707A59F900DB49F900D16
:100E7000A49F800D911D11240895B7FF0C94320793
:100E80000E943207821B930B0895A1E21A2EAA1B1F
:100E9000BB1BFD010DC0AA1FBB1FEE1FFF1FA2172A
:100EA000B307E407F50720F0A21BB30BE40BF50B27
:100EB000661F771F881F991F1A9469F760957095B0
:100EC000809590959B01AC01BD01CF010895A29F33
:100ED000B001B39FC001A39F700D811D1124911D0E
:100EE000B29F700D811D1124911D08950E94EE077F
:100EF00008F481E008950E9482076894B1110C946F
:100F0000350808950E941A0888F09F5798F0B92F65
:100F10009927B751B0F0E1F0660F771F881F991F2E
:100F20001AF0BA95C9F714C0B13091F00E94340894
:100F3000B1E008950C943408672F782F8827B85FA4
:100F400039F0B93FCCF3869577956795B395D9F786
:100F50003EF490958095709561957F4F8F4F9F4F90
:100F60000895E89409C097FB3EF49095809570959C
:100F700061957F4F8F4F9F4F9923A9F0F92F96E9E5
:100F8000BB279395F695879577956795B795F1115A
:100F9000F8CFFAF4BB0F11F460FF1BC06F5F7F4FF7
:100FA0008F4F9F4F16C0882311F096E911C0772309
:100FB00021F09EE8872F762F05C0662371F096E812
:100FC000862F70E060E02AF09A95660F771F881FE1
:100FD000DAF7880F9695879597F90895990F000885
:100FE000550FAA0BE0E8FEEF16161706E807F907FB
:100FF000C0F012161306E407F50798F0621B730B96
:10100000840B950B39F40A2661F0232B242B252B16
:1010100021F408950A2609F4A140A6958FEF811DB9
:10102000811D089557FD9058440F551F59F05F3F9B
:1010300071F04795880F97FB991F61F09F3F79F0FA
:1010400087950895121613061406551FF2CF46957C
:10105000F1DF08C0161617061806991FF1CF8695FE
:101060007105610508940895E894BB2766277727E2
:10107000CB0197F908950E944E080C94BF080E9476
:10108000B10838F00E94B80820F0952311F00C94B4
:10109000A8080C94AE0811240C9435080E9412087C
:1010A00070F3959FC1F3950F50E0551F629FF001BB
:1010B000729FBB27F00DB11D639FAA27F00DB11DD4
:1010C000AA1F649F6627B00DA11D661F829F22275D
:1010D000B00DA11D621F739FB00DA11D621F839FE4
:1010E000A00D611D221F749F3327A00D611D231FBA
:1010F000849F600D211D822F762F6A2F11249F5708
:1011000050409AF0F1F088234AF0EE0FFF1FBB1F0A
:10111000661F771F881F91505040A9F79E3F5105C9
:1011200080F00C94A8080C9435085F3FE4F3983ED7
:10113000D4F3869577956795B795F795E7959F5F73
:10114000C1F7FE2B880F911D9695879597F9089505
:1011500097F99F6780E870E060E008959FEF80EC6A
:10116000089500240A94161617061806090608950D
:1011700000240A9412161306140605060895092E73
:101180000394000C11F4882352F0BB0F40F4BF2BE2
:1011900011F460FF04C06F5F7F4F8F4F9F4F089522
:1011A000991B79E004C0991F961708F0961B881FB9
:1011B0007A95C9F780950895EE0FFF1F0590F49179
:0811C000E02D0994F894FFCF23
:1011C80000000000AA0308010A02090244697374B6
:1011D800616E63653A200020636D00476174652085
:1011E8006973206F70656E696E6721004761746569
:0C11F80020697320636C6F7365642E0027
:00000001FF
